:020000040800F2
:10000000380A0020C9010008832A00081F220008BE
:10001000812A000853030008573700080000000039
:100020000000000000000000000000007134000823
:100030006104000800000000DD300008733400088F
:10004000E3010008E3010008E3010008E301000800
:10005000E3010008E3010008E3010008E3010008F0
:10006000E3010008E3010008E3010008E3010008E0
:10007000E3010008E3010008E3010008E3010008D0
:10008000E3010008E3010008E3010008E3010008C0
:10009000E3010008E3010008E3010008E3010008B0
:1000A000E3010008E3010008E3010008E3010008A0
:1000B000D9340008E5340008F1340008E3010008F1
:1000C000E3010008E3010008E3010008E301000880
:1000D000E3010008E3010008E3010008E301000870
:1000E000E3010008E3010008E301000800F002F862
:1000F00000F05AF80AA090E8000C82448344AAF168
:100100000107DA4501D100F04FF8AFF2090EBAE865
:100110000F0013F0010F18BFFB1A43F0010318473B
:1001200048540000685400000A444FF0000C10F8D6
:10013000013B13F0070408BF10F8014B1D1108BF65
:1001400010F8015B641E05D010F8016B641E01F805
:10015000016BF9D113F0080F1EBF10F8014BAD1C55
:100160000C1B09D16D1E58BF01F801CBFAD505E073
:1001700014F8016B01F8016B6D1EF9D59142D6D3CD
:10018000704700000023002400250026103A28BFF5
:1001900078C1FBD8520728BF30C148BF0B607047F9
:1001A0001FB51FBD10B510BD00F09EF81146FFF73A
:1001B000F7FF03F065FC00F0BCF803B4FFF7F2FFB3
:1001C00003BC00F0BFF80000094880470948004719
:1001D000FEE7FEE7FEE7FEE7FEE7FEE7FEE7FEE7F7
:1001E000FEE7FEE704480549054A064B7047000054
:1001F000D5340008ED00000838040020380A00203B
:10020000380600203806002010B5203AC0F00B80D8
:10021000B1E81850203AA0E81850B1E81850A0E80A
:100220001850BFF4F5AF5FEA027C24BFB1E8185064
:10023000A0E8185044BF18C918C0BDE810405FEAD4
:10024000827C24BF51F8043B40F8043B08BF704750
:10025000D20728BF31F8023B48BF11F8012B28BF55
:1002600020F8023B48BF00F8012B70474FF0000216
:1002700000B5134694469646203922BFA0E80C509C
:10028000A0E80C50B1F12001BFF4F7AF090728BF77
:10029000A0E80C5048BF0CC05DF804EB890028BFF3
:1002A00040F8042B08BF704748BF20F8022B11F01C
:1002B000804F18BF00F8012B704770477047704798
:1002C00010B500F009F8006810BD10B5044600F044
:1002D00003F8046010BD000000487047D4030020FC
:1002E00000487047D40300207546FFF7F9FFAE467B
:1002F00005006946534620F00700854618B020B532
:10030000FFF770FFBDE820404FF000064FF00007F8
:100310004FF000084FF0000B21F00701AC46ACE8AD
:10032000C009ACE8C009ACE8C009ACE8C0098D461A
:10033000704710B50446AFF300802046BDE810407A
:10034000FFF73BBF01491820ABBEFEE726000200C5
:100350007047FEE72DE9F84F3A4D4FF000083A4C50
:10036000404605F1B6094FF0FF3B05F1BC0AC5F860
:100370004C8001467D2091FBF0F200FB121020B969
:100380004FF40051314800F06FF9432089F8000024
:100390002C4A4E465F460123B632D0212C48CDF878
:1003A00000B000F061FB274A0623B632D02128486E
:1003B000009700F031FA308840BA01B2AAF8001074
:1003C0007288084652BA17B2AAF80270B28852BAB6
:1003D00016B2AAF8046004F0E9FD216804F094FC68
:1003E0002060384604F0E2FD616804F08DFC606036
:1003F000304604F0DBFDA16804F086FCA060042018
:1004000000F030F8E86C401CE864B0F5FA6FB0DB3F
:10041000104D2068294604F0EBFC206029466068F6
:1004200004F0E6FC60602946A06804F0E1FCA060EE
:10043000054809490C30C0E9001808498160BDE849
:10044000F88F000000000020D802002000100140BA
:10045000540100200000FA440000A0C2000011C4B2
:100460007047000070B5044600F00CF90546601CAA
:1004700002D004480078044400F004F9401BA04274
:10048000FAD370BD080100202DE9F84FDFF8B891CC
:100490000024A9F1040B23460F2709F1040AABF14C
:1004A000040EC9E00125A5402A40AA427DD1674E2D
:1004B000D1F804C0ACEB0608B44532D014DCBCF172
:1004C000030F3AD009DCBCF1000F2AD0BCF1010FB8
:1004D0001CD0BCF1020F31D11DE0BCF1110F17D0BF
:1004E000BCF1120F2AD119E0B8F5881F19D006DC2B
:1004F000B8F5803F15D0B8F5801F1FD111E0B8F5D1
:10050000001F0ED0B8F5041F18D10AE0CB6815E023
:10051000CB681B1D12E0CB6808330FE0CB680C33AF
:100520000CE08B682BB1012B4FF0080303D0456121
:1005300004E0042302E0056100E00023FF2A01D863
:10054000064601E000F104064FEA840501D9A5F151
:100550002005D6F8008007FA05FC28EA0C0803FA03
:1005600005F548EA0508C6F800804D68ED0062D53B
:10057000374DAE6946F00106AE61AD6924F0030661
:1005800005F001050095334D06EB050CDCF808502D
:10059000A607360F07FA06F825EA0805DFF8B8803F
:1005A000404503D14FF0000817E044E0DFF8AC808D
:1005B000404502D14FF001080FE0DFF8A48040452C
:1005C00002D14FF0020808E0DFF89880404502D1E0
:1005D0004FF0030801E04FF0040808FA06F848EA73
:1005E0000508CCF808804D68D9F80060ED024D464A
:1005F00001D5164300E096432E604D68DAF800609E
:10060000AD02554601D5164300E096432E604D6875
:10061000DBF80060AD035D4601D5164300E096436C
:100620002E604D68DEF80060ED03754601D5164377
:1006300000E096432E60641C0D682A46E5407FF476
:1006400031AFBDE8F88F0000080401400000111030
:10065000001002400000014000080140000C014071
:100660000010014000140140C26821EA02030A4060
:1006700043EA0241016170470AB101617047090410
:10068000FBE7000001488068704700000801002077
:1006900070B5040025D094F83D00002520B984F8F9
:1006A0003C50204600F00EFB242084F83D002068DA
:1006B000016821F0010101602068016841F40041F6
:1006C00001602068016821F40041016000F056FCDF
:1006D0004D4A6168914201D84C4900E04C4988423A
:1006E00001D2012070BD4B492368B0FBF1F15E6877
:1006F00026F03F060E435E606368934206D94FF4CE
:10070000967359434FF47A73B1FBF3F12368491C94
:100710001E6A26F03F06314319626168914210D883
:100720004900401EB0FBF1F2521CC2F30B02042A36
:1007300001D2042022E0B0FBF1F0401CC0F30B001A
:100740001CE0A268F2B301EBC10303EB0116431EE8
:10075000B3FBF6F35B1C43F480431B0549D092B313
:1007600001EBC10202EB0111401EB0FBF1F0401C95
:10077000C0F30B0040F4804040F400402168CA6997
:100780004CF6FF739A431043C861D4E90710014344
:100790002068026822F0C00211430160D4E903011D
:1007A00001432068826848F2FF339A431143816015
:1007B000D4E9050108432168CA6822F0FF0210430A
:1007C000C86001E00EE016E02068016841F0010118
:1007D00001602564202084F83D00256384F83E50A4
:1007E000002070BD01EB4106431EB3FBF6F35B1C1A
:1007F000B3E70120C2E701EB4101401EB0FBF1F07D
:10080000401CC0F30B00B7E7A086010080841E00E7
:1008100000093D0040420F002DE9F84F0025DDF8AA
:100820002890984617468A4604460095FFF72AFF07
:10083000064694F83D0020287AD1192301228649E2
:100840002046009601F048FE0028F5D194F83C00BF
:1008500001286DD0012084F83C0020680168C90798
:1008600003D1016841F0010101602068016821F4B1
:1008700000610160222084F83D00102084F83E00D1
:1008800025646762A4F82A80608D20857348E06241
:1008900033464A465146204601F0DAFC00287CD116
:1008A000208DDFF8BC81202768B1012814D00228F0
:1008B000206801681ED041F48061016020684169B0
:1008C00080690090BBE020684169816900910168FE
:1008D00041F400710160B2E02068016821F4806198
:1008E000016072B62068416981690091016841F434
:1008F00000710AE041F40061016072B6206841694C
:1009000081690091016821F48061016062B696E01E
:10091000032865D801280CD002284B464FF000026E
:100920004146204600960BD001F0D6FDA8BB0CE056
:1009300090E032464946204601F074FE68BB71E003
:1009400001F0CAFD48BB72B633E02068016821F4AB
:100950008061016072B620680069616A0870606A2F
:10096000401C6062208D401E2085608D401E608589
:100970003C4846F2A8110068B0FBF1F0C0EBC000A3
:1009800000EB80000090401E009007D02068406976
:10099000C04340070DD50098F5E727E044F8305FE5
:1009A0006773A573206940F02000206162B625734B
:1009B0001CE02068016841F4007101602068006952
:1009C000616A0870606A401C6062218D491E218541
:1009D000618D491E618562B621680969017025E053
:1009E00032464946204601F01DFE10B10120BDE807
:1009F000F88F20680069616A0870606A401C606254
:100A0000208D401E81B22185608D401E608520684A
:100A10004269D243520712D4032903D1016821F459
:100A20008061016020680069616A0870606A401C2A
:100A30006062208D401E2085608D401E6085208D67
:100A400000287FF465AF84F83D7084F83E5084F848
:100A50003C50CCE70220CAE7020010000000FFFF74
:100A600004000100140100202DE9F84F1F469046B4
:100A70008A460446DDF82890FFF704FE054694F800
:100A80003D0020287FD119230122404920460095AE
:100A900001F022FD002876D194F83C00012872D0A4
:100AA000012084F83C0020680168C90703D101686F
:100AB00041F0010101602068016821F400610160DA
:100AC000212084F83D00102084F83E000026266492
:100AD000C4F824806785608D20852D48E0622B4610
:100AE0004A465146204601F029FC90B920684169E8
:100AF0008069009036E02A464946204601F0CAFD4A
:100B000050B1206C042804D12068016841F40071C0
:100B100001600120BDE8F88F606A216800780861F3
:100B2000606A401C6062618D491E6185218D491E8D
:100B300089B2218522685369DB435B070BD451B12D
:100B400000781061606A401C6062608D401E6085A4
:100B5000208D401E20852A464946204601F090FC03
:100B60000028CED1208D0028C5D154F83D0B016856
:100B700041F400710160202004F81E09E6776677D1
:100B80000020C7E7FFE70220C4E7000002001000D2
:100B90000000FFFF2DE9FF4F83B09A46DDE9119772
:100BA00093460446DDF84080FFF76CFD054694F857
:100BB0003D0020287FD1192301224049204600957D
:100BC00001F08AFC002876D194F83C00012872D00C
:100BD000012084F83C0020680168C90703D101683E
:100BE00041F0010101602068016821F400610160A9
:100BF000212084F83D00402084F83E000026266431
:100C0000C4F82480A4F82A90608D20852C48E062E6
:100C1000CDE9007553465A462046049901F0DCFBA5
:100C200070B930E02A463946204601F033FD58B10C
:100C3000206C042804D12068016841F4007101602F
:100C4000012007B0BDE8F08F606A21680078086174
:100C5000606A401C6062218D491E89B22185628DC7
:100C6000521E628522685369DB435B070BD469B16E
:100C700000781061606A401C6062208D401E2085F3
:100C8000608D401E6085208D0028CBD12A463946D4
:100C9000204601F0F5FB0028CAD154F83D0B01684D
:100CA00041F400710160202004F81E09E6776677A0
:100CB0000020C6E7FFE70220C3E7000002001000A3
:100CC0000000FFFF10B586B0002100910191029154
:100CD000039100680F4988421AD10F4CA06940F077
:100CE0000800A061A069694600F008000490C020D7
:100CF000009012200190032003900848FFF7C4FBE6
:100D0000E06940F40010E061E06900F40010049034
:100D100006B010BD0054004000100240000C01401D
:100D20000248816802781144816070470801002000
:100D3000074810B5016841F010010160032000F080
:100D400075F80F2000F006F800F024F8002010BD20
:100D50000020024070B50D4D04464FF47A7128789A
:100D6000B1FBF0F00A490968B1FBF0F000F0B7FD03
:100D700048B9102C07D200222146501E00F036F848
:100D800000206C6070BD012070BD000008010020D3
:100D9000140100200C4808B5816941F0010181610E
:100DA000816901F001010091C16941F08051C16187
:100DB000C06900F0805000900448416821F0E06173
:100DC00041F00071416008BD001002400000014088
:100DD000002809DB00F01F0201219140400980003A
:100DE00000F1E020C0F8001170470000F0B40E4B95
:100DF0001B680C46C3F30223C3F10705042D00D979
:100E00000425191D072901D2002300E0DB1E01265D
:100E100006FA05F1491E214099409E40761E164073
:100E20003143F0BC02F0ACBC0CED00E0064900F030
:100E3000070208684FF6FF03184040EA0220034A01
:100E400010430860704700000CED00E00000FA0558
:100E50002DE9F0470F46050061D0434E306800F0A1
:100E60000700B84209D2306820F0070038433060EC
:100E7000306800F00700B84251D128683B4C810728
:100E800012D5400703D5606840F4E06060602878C0
:100E9000000703D5606840F4605060606068A9682E
:100EA00020F0F000084360602878C00728D0686808
:100EB000012810D02168022810D0890700292EDAD5
:100EC000616821F0030101436160FFF7DBFB8046AD
:100ED00041F288390DE021688903EFE78901EDE7E8
:100EE000FFF7D0FBA0EB0801494502D90320BDE87C
:100EF000F0876068696800F00C00B0EB810FEFD1FB
:100F0000306800F00700B8420BD9306820F00700C5
:100F100038433060306800F00700B84201D001204B
:100F2000E5E72878400705D56068E96820F4E060C7
:100F3000084360602878000706D56068296920F4B6
:100F4000605040EAC100606000F028F86168084A1B
:100F5000C1F30311515CC8400649086006480068A7
:100F6000FFF7F8FE0020C2E7002002400010024018
:100F7000B4540008140100200C0100200448054965
:100F800000684968044AC1F30221515CC8407047B7
:100F90001401002000100240C45400080E4A516899
:100FA0000E4801F00C03042B11D0082B0FD10C4874
:100FB000C1F38343C903C05C0AD55168084AC1F331
:100FC0004041921E515C054A5043B0FBF1F070471E
:100FD00004494843704700000010024000127A00A4
:100FE000A454000800093D002DE9F84F040070D01A
:100FF0002078C04DC00749D06868C0F3810001283F
:1010000007D06868C0F38100022809D16868C0036E
:1010100006D52868800339D560680028E7D035E018
:101020006068B0F5803F0BD010B1B0F5A02F11D0A3
:10103000286820F480302860286820F4802002E0AE
:10104000286840F480302860606890B1FFF71AFB90
:1010500006460AE0286840F480202860F0E700BFD8
:10106000FFF710FB801B642873D828688003F7D52E
:101070000CE0FFF707FB064605E000BFFFF702FBA9
:10108000801B6428F0D828688003F7D420789A4E13
:1010900080074FF001094FF0000839D5686810F05B
:1010A0000C0F07D06868C0F38100022809D1686876
:1010B000C00306D42868800714D52069012808D108
:1010C00010E02069B0B1C6F80090FFF7DBFA0746E0
:1010D00005E00AE1FFF7D6FAC01B0228C4D8286849
:1010E0008007F7D52868616920F0F80040EAC10060
:1010F00028600DE0C6F80080FFF7C4FA074604E058
:10110000FFF7C0FAC01B022823D828688007F7D44D
:10111000207800072CD57948A169D9B1C0F8009092
:10112000FFF7B0FA074604E0FFF7ACFAC01B02284D
:101130000FD8686A8007F7D571484FF4FA510068F4
:10114000B0FBF1F0009000BF0098411E0091FAD270
:101150000EE080E0C0F80080FFF794FA074604E054
:10116000FFF790FAC01B022875D8686A8007F7D489
:101170002078400760D5E8690027C00008D4E869F6
:1011800040F08050E861E869012700F0805000904D
:101190005C480168C90513D40168834641F4807135
:1011A0000160FFF76FFA824606E000BFFFF76AFAB8
:1011B000A0EB0A0064284ED8DBF80000C005F5D586
:1011C000E06801280AD008B1052813D0286A20F069
:1011D00001002862286A20F0040002E0286A40F03A
:1011E00001002862E06841F2883B98B1FFF74AFAB3
:1011F00082460BE0286A40F004002862EEE700BF58
:10120000FFF740FAA0EB0A0159455AD8286A80072F
:10121000F6D50CE0FFF736FA824605E0FFF732FA22
:10122000A0EB0A0159454CD8286A8007F6D41FB1B3
:10123000E86920F08050E861E06988B36968C1F32B
:101240008101022944D00228C6F8608004D0FFF74B
:1012500019FA044638E034E0FFF714FA074604E0D0
:10126000FFF710FAC01B02282BD828688001F7D49A
:10127000206AB0F5803F05D16868A16820F400308D
:1012800008436860D4E908010843696821F47411CF
:1012900008436860C6F86090FFF7F4F9044606E07A
:1012A00025E000BFFFF7EEF9001B022809D82868E7
:1012B0008001F7D51BE000BFFFF7E4F9001B02280F
:1012C00002D90320BDE8F88F28688001F4D40EE02D
:1012D0000128F7D06868226A00F48031914204D175
:1012E000616A00F47010884201D00120EAE7002012
:1012F000E8E7000000100240000042428004424241
:10130000140100200070004070B5040009D0606A2C
:10131000002540B125616561A56294F8510040B196
:101320000CE0012070BD6068B0F5827FF4D0E5610B
:10133000F2E784F85050204600F040F8022084F88C
:1013400051002068016821F040010160A0882189D6
:1013500000F4827001F404410843A18901F40061A2
:101360000843217C01F002010843217D01F00101C5
:101370000843218B01F400710843217F01F03801FB
:10138000084394F8201001F080010843218D01F4F6
:101390000051084321680860A069042101EA104057
:1013A000216848602068C16921F40061C1616565F8
:1013B000012084F85100002070BD000030B585B0D8
:1013C0000024009401940294039400681449884214
:1013D00023D11448816941F480518161816901F40C
:1013E00080510491816941F00401816180690E4D51
:1013F00000F004000490A02000900220019003203F
:10140000039069462846FFF73FF84020CDE90004E5
:10141000694628460294FFF737F805B030BD000052
:101420000030014000100240000801402DE9F84F53
:10143000044690F85100984616460F4600250128AC
:1014400001D0022598E060684FF0040BB0F5827F70
:1014500001D1A068F8B194F85000012826D04FF0CF
:10146000010984F85090FFF70DF98246002F7FD0D4
:10147000002E7DD084F851B000206065A763A68758
:10148000E6872063A086E08620646064A068B0F5EB
:10149000004F0DD016E084F851B013460A4620469E
:1014A000CDF8008000F024F9BDE8F88F0220FBE7BA
:1014B0002068016821F0400101602068016821F482
:1014C0008041016020680168490603D4016841F049
:1014D00040010160E068D8B13BE020688168C9073D
:1014E00009D0007BA16B0870A06B401CA063E08F4B
:1014F000401EE0870CE0FFF7C5F8A0EB0A0141456C
:1015000003D3B8F1FF3F03D006E0B8F1000F03D0DA
:10151000E08F0028E1D11FE003252BE020688168DF
:10152000C90709D0C068A16B0880A06B801CA063AC
:10153000E08F401EE0870CE0FFF7A4F8A0EB0A0163
:10154000414503D3B8F1FF3F03D0E5E7B8F1000F01
:10155000E2D0E08F0028E1D152464146204601F01A
:10156000EDFE08B120206065606D00E000E008B18C
:10157000012501E084F85190002084F850002846AD
:1015800092E72DE9F84F044690F85000002698465F
:1015900015468A4601280CD0012784F85070FFF7C1
:1015A00071F8814694F85100B346012804D0022610
:1015B0009AE00220BDE8F88FBAF1000F6FD0002D3D
:1015C0006DD0032084F85100C4F854B0C4F830A0A2
:1015D000A586E586C4F838B0A4F83CB0A4F83EB0BF
:1015E000C4F844B0C4F840B0A068B0F5004F09D1C9
:1015F0002068016821F0400101602068016841F421
:101600008041016020680168490603D4016841F007
:1016100040010160E068B0F5006F606803D058B326
:10162000012D29D049E008B1012D1FD1206B21687F
:101630000088C86006E020688168890709D5216BA9
:101640000988C160206B801C2063E08E401EE0860C
:101650000CE0FFF717F8A0EB0901414503D3B8F1FF
:10166000FF3F03D006E0B8F1000F03D0E08E002862
:10167000E1D125E0032635E0206B2168007808736E
:1016800006E02068816889070AD5216B0978017313
:10169000206B401C2063E08E401EE0860DE01FE0C2
:1016A000FEF7F0FFA0EB0901414503D3B8F1FF3F7E
:1016B00003D0DFE7B8F1000FDCD0E08E0028E0D1E6
:1016C0004A464146204601F067FE08B12020606589
:1016D000A06818B92068C16880680090606D08B182
:1016E000012601E084F8517084F850B0304661E77B
:1016F0002DE9FF4F81B0044690F8500000260E9F60
:101700001D4693464FF0010901280FD04FF0010A02
:1017100084F850A0FEF7B6FF804694F85100616847
:1017200001280DD0B1F5827F08D103E0022005B079
:10173000BDE8F08FA16809B9042801D00226C9E0EC
:101740000298002865D0BBF1000FFBD0002DF9D026
:1017500094F85100042802D0052084F8510000209C
:101760006065C4F838B0E587A58702992163E586EE
:10177000A5862064606420680168490603D4016876
:1017800041F040010160E068B0F5006F606803D08F
:10179000F0B3012D47D081E008B1012D3CD1206B81
:1017A00021680088C860206B801C2063E08E401E8A
:1017B000E08631E02068816889070FD5E18E69B144
:1017C000B9F1010F0AD1216B0988C160206B801C1F
:1017D0002063E08E401EE0864FF00009206881689B
:1017E000C9070CD0E18F51B1C068A16B0880A06B14
:1017F000801CA063E08F401EE0874FF00109FEF7D8
:1018000041FFA0EB0800B84206D3781C04D001E0E9
:1018100009E05BE003265BE0E08E0028CAD1E08FA0
:101820000028C7D140E0206B216800780873206B46
:10183000401C2063E08E401EE0862FE02068816817
:1018400089070FD5E18E69B1B9F1010F0AD1216B7A
:1018500009780173206B401C2063E08E401EE086F7
:101860004FF0000920688168C9070CD0E18F51B1A1
:10187000C068A16B0870A06B401CA063E08F401E85
:10188000E0874FF00109FEF7FDFEA0EB0800B8422B
:1018900002D3781C02D0BAE7002FB8D0E08E00281F
:1018A000CCD1E08F0028C9D142463946204601F00C
:1018B00073FD18B10126202060650BE0A06818B9FF
:1018C0002068C16880680090606D08B1012601E061
:1018D00084F851A0002084F85000304627E710B566
:1018E000401EB0F1807F01D3012010BD4FF0E024F5
:1018F00060610F21601701F043FF0020A061072005
:101900002061002010BD70477047000070B590F84E
:101910003C20012A26D0012480F83C40022280F895
:101920003D2003685A689D6822F070060A683243B9
:101930005A600D4B02689A4208D0B2F1804F05D030
:101940000A4B9A4202D00A4B9A4204D1496825F0C8
:1019500080031943916080F83D40002180F83C10DD
:10196000084670BD022070BD002C014000040040FC
:10197000000800402DE9F0470446007F6A4E012729
:101980004FF6FF784FF00009A6F1800501282FD10E
:10199000287860B1012870D10021204600F029FC90
:1019A00070613169884214D9A0EB010015E04FF055
:1019B0000001204600F01DFC30612F702068016A94
:1019C00021F00A0101622068016A41F0020101620E
:1019D0000EE003D2A8EB0101084428632068016AE5
:1019E00021F00A0101622068016A016285F8009015
:1019F000207F02282FD1687860B101283DD10421D1
:101A0000204600F0F6FBF061B169884214D9A0EBE2
:101A1000010015E04FF00401204600F0EAFBB06140
:101A20006F702068016A21F0A00101622068016ADC
:101A300041F0200101620EE003D2A8EB010108444D
:101A400068632068016A21F0A00101622068016AD0
:101A5000016285F80190207F042830D1A87868B110
:101A600001284FD10821204600F0C3FB7062316A83
:101A7000884215D9A0EB010016E043E04FF00801C1
:101A8000204600F0B6FB3062AF702068016A21F496
:101A9000007101622068016A41F4007101620EE088
:101AA00003D2A8EB01010844A8632068016A21F46D
:101AB000007101622068016A016285F80290207F4E
:101AC00008281FD1E87860B101281BD10C212046DD
:101AD00000F08FFBF062B16A884215D9A0EB0100DB
:101AE00016E04FF00C01204600F083FBB062EF706F
:101AF0002068016A21F4005101622068016A41F402
:101B000000510162BDE8F08703D2A8EB010108444F
:101B1000E8632068016A21F4005101622068016ACB
:101B2000016285F80390EDE7800000202DE9F04187
:101B3000054690F83C0000260C46012810D00120F4
:101B400085F83C0072B1042A1CD0082A2CD00C2A3B
:101B500050D00126002085F83C003046BDE8F081D9
:101B60000220FBE7D4E90012E368286801F0ACFD2D
:101B70002868816921F00C01816128688169A26867
:101B800011430FE0D4E90012E368286801F0C8FDB2
:101B90002868816921F44061816128688169A268AF
:101BA00041EA02218161D5E72868D4E9002C277B2E
:101BB000036A016A21F480710162C16923F4007330
:101BC00021F0030141EA0C0121F0F00C39074FF438
:101BD00000774CEA116107EA02221A43C1610262EE
:101BE0002868C16921F00C01C1612868C169A26837
:101BF00011432BE02868D4E90021E768036AD0F894
:101C000020C02CF4805CC0F820C0D0F81CC023F4A5
:101C100000532CF4407C4CEA012121F4704C4FF627
:101C2000FF7101EA07314FF4005741EA0C0107EA5E
:101C300002321A43C16102622868C16921F440611D
:101C4000C1612868C169A26841EA0221C16181E7D6
:101C500010B5040003D094F83D0010B107E0012056
:101C600010BD002084F83C00204600F01FF8022040
:101C700084F83D00211D206801F040FC012084F81B
:101C8000460084F83E0084F83F0084F8400084F861
:101C9000410084F8420084F8430084F8440084F84A
:101CA000450084F83D00002010BD000000B585B05F
:101CB000002100910191029103910068B0F1804FE1
:101CC0001ED11048C16941F00101C161C16901F033
:101CD00001010491816941F00401816180696946D3
:101CE00000F0040004900F2000900748FEF7CCFBA2
:101CF000002211461C20FFF779F81C20FFF768F836
:101D000005B000BD001002400008014030B5044697
:101D1000002551B104290DD0082910D094F84100B4
:101D200094F84520012811D10EE094F83E0094F873
:101D30004220F7E794F83F0094F84320F2E794F844
:101D4000400094F84420EDE7012A01D0012030BD85
:101D5000022059B1042912D0082919D084F8410071
:101D600084F845000C2938D0012534E084F83E0081
:101D700084F842002068C26842F0020210E084F851
:101D80003F0084F843002068C26842F0040207E084
:101D900084F8400084F844002068C26842F00802D9
:101DA000C2600122206801F0DFFB0E4920688842F2
:101DB00008D0B0F1804F05D00B49884202D00B49C2
:101DC000884204D1816801F00701062903D0016827
:101DD00041F001010160284630BD2068C26842F030
:101DE0001002DDE7002C0140000400400008004024
:101DF00070B50446006801694FF00005C9438907C2
:101E000015D4C168C943890711D4E91E01610120B5
:101E10002077206880698007204602D0FFF7AAFD5E
:101E200004E000F0CFF8204600F092F92577206812
:101E30000169C943490717D4C168C943490713D485
:101E40006FF004010161022020772068806910F49E
:101E5000407F204602D0FFF78DFD04E000F0B2F88D
:101E6000204600F075F9257720680169C943090704
:101E700016D4C168C943090712D46FF00801016183
:101E8000042020772068C0698007204602D0FFF731
:101E900071FD04E000F096F8204600F059F925772E
:101EA00020680169C943C90617D4C168C943C90676
:101EB00013D46FF010010161082020772068C069F9
:101EC00010F4407F204602D0FFF754FD04E000F0FC
:101ED00079F8204600F03CF9257720680169C9436C
:101EE000C90708D1C168C943C90704D1891E016166
:101EF000204600F07DF920680169C943090609D42C
:101F0000C168C943090605D46FF08001016120460C
:101F1000FFF7F9FC20680169C943490609D4C16883
:101F2000C943490605D46FF040010161204600F025
:101F300075F920680169C94389060BD4C168C94392
:101F4000890607D46FF0200101612046BDE870408A
:101F5000FFF7DABC70BD000010B586B0002100911B
:101F6000019102910391134C036813490222134813
:101F7000A34209D18B6943F008038B61896901F0A1
:101F80000801049103210CE00D4CA3420FD18B6991
:101F900043F008038B61896901F0080104914FF453
:101FA0004071CDE9001269460392FEF76DFA06B062
:101FB00010BD00000004004000100240000C014071
:101FC00000080040704770B5044690F83C000026B9
:101FD0000D4601280FD0012084F83C006AB1042A84
:101FE0001DD0082A2FD00C2A3FD00126002084F8CB
:101FF0003C00304670BD022070BD206801F0C2FA7E
:102000002068816941F0080181612068816921F0BF
:1020100004018161206881692A69114311E0206807
:1020200001F0D8FA2068816941F40061816120687B
:10203000816921F480618161206881692A6941EAAE
:1020400002218161D2E7206801F0F0FA2068C169BD
:1020500041F00801C1612068C16921F00401C1613A
:102060002068C1692A69114311E0206801F00AFB68
:102070002068C16941F40061C1612068C16921F42F
:102080008061C1612068C1692A6941EA0221C16198
:10209000ACE710B5040003D094F83D0010B107E0A0
:1020A000012010BD002084F83C00204600F01EF8FE
:1020B000022084F83D00211D206801F01FFA012054
:1020C00084F8460084F83E0084F83F0084F840001D
:1020D00084F8410084F8420084F8430084F8440006
:1020E00084F8450084F83D00002010BD08B5154A6D
:1020F0000168154891420ED1C16941F00201C161E8
:10210000C069002200F00200009011461D20FEF779
:102110006DFE1D2010E00D4A914211D1C16941F0C0
:102120000401C161C069002200F004000090114662
:102130001E20FEF75BFE1E20BDE80840FEF748BEED
:1021400008BD0000000400400010024000080040EC
:102150007047000010B50446022249B104290ED090
:10216000082913D094F84100012816D0012010BD91
:1021700094F83E000128F9D184F83E200FE094F84D
:102180003F000128F2D184F83F2008E094F8400095
:102190000128EBD184F8402001E084F8412001229D
:1021A000206801F0E1F90F492068884203D1426CB0
:1021B00042F4004242642068884208D0B0F1804F67
:1021C00005D00949884202D00849884204D1816873
:1021D00001F00701062903D0016841F00101016007
:1021E000002010BD002C0140000400400008004009
:1021F00070470246002041B1042909D008290AD0BD
:102200000C2901D11068006C70471068406B704752
:102210001068806B70471068C06B70477047FEE7AE
:1022200001684A69D24352050FD46FF480624A6153
:10223000002140F8301F202242738173026942F06E
:102240000402026101730120704700207047000002
:102250002DE9F84F0446C06A1E4693460D46216894
:102260000A6842F480620A60082807D0012805D075
:1022700010F5803F02D0206B112804D1206801683E
:1022800041F4807101604FF001195B46002249461C
:102290002046009600F020F94FF4007840B1206805
:1022A0000068C00501D5C4F840800320BDE8F88F60
:1022B0002069DFF884A0B0F5804F0FD00620216898
:1022C00000EAD51747F0F000086133465A460AF194
:1022D0000601204600F048F958BB03E0E8B240F0A0
:1022E00001001CE02168E8B2086133465A465146B5
:1022F000204600F039F9E0B9206841698169009110
:10230000016841F4807101605B4600224946204625
:10231000009600F0E1F80028C1D147F0F1002168F3
:10232000086133465A465146204600F01DF9002800
:10233000BCD00120BAE7000002000100F8B5044655
:10234000C06A1E460D461746082807D0012805D04A
:1023500010F5803F02D0206B122804D1206801685C
:1023600041F480710160134600224FF001112046B4
:10237000009600F0B1F840B120680068C00502D5B1
:102380004FF4007020640320F8BD2069B0F5804F41
:102390000ED00620216800EAD51040F0F000086158
:1023A00033463A460B49204600F0DEF878B902E0A1
:1023B00005F0FE0000E0E8B22168086105493346F7
:1023C0003A46891F204600F0CFF80028DCD00120D3
:1023D000F8BD0000080001002DE9F843044600683C
:1023E0000D46DDE9089701689846164641F480716C
:1023F00001604B4600224FF001112046009700F08B
:102400006BF848B120680068C00502D54FF4007031
:1024100020640320BDE8F883216805F0FE00086110
:102420003B464A461549204600F09EF888B9206888
:102430004169806900903A464946204600F02AF9F1
:1024400048B1206C042804D12068016841F400716F
:1024500001600120DEE7F5B2B8F1010F09D0216873
:10246000300A08613A464946204600F013F9002830
:10247000E7D1206805610020CCE7000002000100E0
:1024800070B516460D4604461EE02046FFF7C8FE0E
:1024900008B1012070BD681C16D0FEF7F3F8801B50
:1024A000A84200D885B920684069C04340070BD5D1
:1024B000002044F8300F20216173A073216941F09E
:1024C000200121612073E4E720684069C043400790
:1024D000DBD4002070BD00002DE9F0479846174678
:1024E0000D460446C1F30746DDF820902AE000BF00
:1024F000B8F1FF3F26D0FEF7C5F8A0EB0901414532
:1025000002D8B8F1000F1DD12068012E16D08069C5
:1025100025EA00000004000C12D00020B84211D1BE
:10252000002044F8300F20216173A073216941F02D
:102530002001216120730120BDE8F0874069E7E7B1
:102540000120EBE72068012E0AD0806925EA00000F
:102550000004000C06D00020B842C9D00020EBE7F0
:102560004069F3E70120F7E72DE9F0479846164662
:102570000D4604464FF000094FF0200AC1F307470B
:1025800023E020684069C043400515D420680168F5
:1025900041F40071016021686FF480604861C4F803
:1025A000309084F83DA084F83E90216C41F0040105
:1025B000216484F83C9021E0701C06D0FEF762F89C
:1025C000A0EB0800B04203D816B1012F1FD021E0C4
:1025D0002068012F15D0806925EA00000004000C56
:1025E00018D000BF44F8309F84F80DA084F80E90F6
:1025F000216941F02001216184F80C900120BDE89F
:10260000F087406925EA00000004000CEAD1206848
:10261000406901E02068806925EA00000004000CA0
:10262000AFD1ECE72DE9F041002590460E46044677
:10263000202728E04069C043C0060CD454F8301B62
:102640006FF01000486144F810596777A577206A49
:102650002062257714E0FEF715F8A0EB0800B042E1
:1026600000D886B920684069C04340060BD544F8BD
:10267000305F6773A573206940F0200020612573E7
:102680000120BDE8F08120684169C9434906D1D4E1
:102690000020F6E770B516460D4604461EE02046BB
:1026A000FFF7BEFD08B1012070BD681C16D0FDF714
:1026B000E9FF801BA84200D885B920684069C04363
:1026C00000060BD5002044F8300F20216173A07361
:1026D000216941F0200121612073E4E7206840690D
:1026E000C0430006DBD4002070BD00002DE9F0419E
:1026F000054698460E46104602F0DAFA1C4A1D4B73
:1027000001F0FCFF07460C46284602F0D1FA3A4693
:10271000234601F0D3FD01F09FFD0446304602F050
:10272000C7FA154A154B01F0C9FD01F095FD0646A3
:10273000134902F0E9FA0146304602F059FB05461A
:102740004146204602F08FFD294602F08FFC2146CB
:1027500002F0DAFA044629464FF07E5002F08EFD70
:10276000314602F083FC074AC2E90040BDE8F0812F
:10277000FCA9F1D24D62703F8DEDB5A0F7C6303F98
:1027800000001041C8000020FEB5184C0020451E76
:1027900020710126271D0097CDE9016533466B2284
:1027A000D0211348FEF7F6F9052020710097CDE9F6
:1027B000016501231A22D0210D48FEF7EBF908200C
:1027C00020710097CDE9016501231B22D021084823
:1027D000FEF7E0F9102020710097CDE90165012393
:1027E0001C22D0210248FEF7D5F9FEBD00000020D2
:1027F000540100202DE9F04385B0002425480094C1
:10280000019402940394816941F01001816181690E
:1028100001F010010491816941F020018161816919
:1028200001F020010491816941F004018161816915
:1028300001F004010491816941F00801816180691E
:10284000DFF8548000F008004FF400550490002297
:1028500029464046FDF710FFDFF840904FF44067EF
:10286000002239464846FDF707FF0095022601255C
:102870000396CDE9015469464046FDF705FE0097F1
:102880000396CDE9015469464846FDF7FDFD05B0C4
:10289000BDE8F0830010024000100140000C014030
:1028A0000F4810B50D4901604FF48271416000215D
:1028B0008160C1604FF400720161C0E90512182205
:1028C000C0E90721416281620A21C162FEF71CFD55
:1028D000002801D072B6FEE710BD000000300140B4
:1028E000A801002010B586B0002424480594049463
:1028F0000094019402944FF08041039401604721B9
:10290000C0E901144FF6FF71C0E903148461FFF7B9
:102910009FF908B172B6FEE7049404A9174805941C
:10292000FEF7F4FF08B172B6FEE70120CDE90040E2
:1029300002940022694611480394FFF7F7F808B1A2
:1029400072B6FEE7042269460C48FFF7EFF808B1BB
:1029500072B6FEE7082269460848FFF7E7F808B1B3
:1029600072B6FEE70C2269460448FFF7DFF800283C
:1029700001D072B6FEE706B010BD000000020020D4
:1029800010B58AB0002407941C2168460894FDF70E
:102990006DFC1A48184901604721C0E9011440F64E
:1029A0009F71C0E903148461FFF773FB08B172B62D
:1029B000FEE7079407A911480894FEF7A7FF08B19E
:1029C00072B6FEE76020CDE9000402940822694651
:1029D0000A480494FFF7F7FA08B172B6FEE70C2232
:1029E00069460648FFF7EFFA08B172B6FEE70348FA
:1029F000FFF7B2FA0AB010BD000400404802002000
:102A000010B58AB0002407941C2168460894FDF78D
:102A10002DFC1A48184901604721C0E9011440F60D
:102A20009F71C0E903148461FFF733FB08B172B6EC
:102A3000FEE7079407A911480894FEF767FF08B15D
:102A400072B6FEE76020CDE90004029408226946D0
:102A50000A480494FFF7B7FA08B172B6FEE70C22F1
:102A600069460648FFF7AFFA08B172B6FEE70348B9
:102A7000FFF772FA0AB010BD000800409002002073
:102A8000FEE7FEE708B5002000F006F950208DF8BB
:102A9000000073208DF80100642302226946034878
:102AA000FEF76FFD012000F0F7F808BD7C03002061
:102AB0000449054A0968B1FBF2F14143491EFDD2C0
:102AC0007047000014010020C0C62D0070B50546F7
:102AD00000F053F90446C0F380166EB115B1C4F38B
:102AE000420028704021072000F0C2FAA00603D55A
:102AF0002021072000F0BCFA304670BD0FB47CB531
:102B000014460D460646582209A95C48FDF77CFB91
:102B10005B4B0120DE60DD801C8100F0BDF80020F1
:102B200000F0B0F80520FDF79DFC0821002000F022
:102B30009FFA3F21012000F09BFA0321022000F0C0
:102B400097FA0321084600F093FA0321042000F0CD
:102B50008FFA0221052000F08BFA0F21062000F0E9
:102B600087FA0E21072000F083FA0021082000F0E8
:102B70007FFA0021092000F07BFAE7248DF803405A
:102B80008DF802408DF801408DF804408DF800402A
:102B9000052269460A2000F083FAC2208DF803005E
:102BA0008DF802008DF801008DF804008DF800000A
:102BB000052269460B2000F073FAC3210C2000F0B7
:102BC00057FAC4210D2000F053FAC5210E2000F061
:102BD0004FFAC6210F2000F04BFA8DF803408DF814
:102BE00002408DF801408DF804408DF80040052228
:102BF0006946102000F054FA0021112000F038FA44
:102C00000021122000F034FA0021132000F030FAE5
:102C10000021142000F02CFA0021152000F028FAE1
:102C20000021162000F024FAFFF72CFF00211C20C1
:102C300000F01EFA00211D2000F01AFA0F210846AC
:102C400000F078F9032000F04FF9012000F01EF9A0
:102C5000022000F000F900F029F8202000F062F9CD
:102C600000F0EEF84C2000F00AF900F07FF800F0D8
:102C700079F800F09BF87CBC5DF814FB7C03002025
:102C800018010020020003480189C06800D0012219
:102C9000FDF7F2BC1801002002000348C188C0689B
:102CA00000D00122FDF7E8BC1801002010B51D205E
:102CB00000F088F820F004011D2000F0D9F900216F
:102CC0001C2000F0D5F902490020C87010BD00009A
:102CD0001801002010B51D2000F074F840F0060126
:102CE0001D2000F0C5F91D2000F06CF848B9FFF771
:102CF000C9FE1D2000F066F840F006011D2000F01E
:102D0000B7F91C2000F05EF840F00301BDE8104068
:102D10001C2000F0ADB9000010B51D2000F052F8E5
:102D200040F004011D2000F0A3F91D2000F04AF836
:102D300048B9FFF7A7FE1D2000F044F840F0040159
:102D40001D2000F095F91C2000F03CF840F03F01F8
:102D50001C2000F08DF902490120C87010BD000050
:102D600018010020FF21E22000F082B9FF21E120BC
:102D700000F07EB9602000F025B8072000F022B8EE
:102D800013B5052269460A2000F08AF90522694632
:102D9000102000F085F904488178202900D32021F3
:102DA000112000F065F91CBD1801002010B50020AD
:102DB00000F008F820F00201BDE81040002000F00B
:102DC00057B9000038B504460020FFF765FF04F04E
:102DD0001F008DF800006423012269460848FEF7B1
:102DE000D0FB6423012206480DF10101FEF71EFB12
:102DF0009DF801400120FFF74FFF204638BD00003D
:102E00007C030020F8B5044615460E460020FFF767
:102E100043FF04F01F008DF800006423012269467F
:102E20000648FEF7AEFB64232A4631460348FEF708
:102E3000FDFA0120FFF730FFF8BD00007C03002001
:102E40007021072000F014B908B13F2100E00021F3
:102E5000012000F00DB910B504460020FFF7B2FFC5
:102E600020F00C011CB1012C06D041F00C01BDE892
:102E70001040002000F0FCB841F00801F7E77F287F
:102E800000D37F200146052000F0F2B82DE9F04183
:102E900007464FF000080620FFF794FF114D00266B
:102EA00020F028046E71022F0ED0012F10D06E7109
:102EB0002146062000F0DCF80620FFF783FFA04241
:102EC0000BD14FF0010809E06E7144F02004EFE7E8
:102ED0000120687144F00804EAE76E714046BDE8DD
:102EE000F08100001801002010B504460620FFF70D
:102EF00069FF20F00601032C0DD0022C05D0012C17
:102F000006D054B1042C06D007E041F0040104E0DF
:102F100041F0020101E041F00601BDE81040062049
:102F200000F0A6B8202800D32020014988707047FF
:102F30001801002000F00F0060F31F11042000F0C2
:102F400097B870B505460C460020FFF79BFE0020A1
:102F5000FFF738FF20F0010040F00201002000F0F0
:102F600087F80120FFF78EFE9620FFF7A1FD21468E
:102F7000284600F061F80120FFF784FE0F20FFF7DC
:102F800097FDBDE870400020FFF77CBE10B5002023
:102F9000FFF778FEFFF7EAFEBDE81040FFF7E2BE5C
:102FA0002DE9F04115460E460446FFF7E6FE0746BA
:102FB000002020707021072000F05AF8C7F340105D
:102FC0002070C7F300103070C7F380102870BDE880
:102FD000F08100003EB50C460546FFF731FF214663
:102FE0002846FFF7AEFFFDF74DFB0446012201A97D
:102FF0000820FFF707FFFFF7C0FE10F0300F04D1E5
:10300000FDF740FB001B0A28F0D30A4A02A96846D4
:10301000FFF7C6FF074C9DF80050207810B1FFF76E
:10302000A9FE60700020FFF751FDFFF79FFE2846C4
:103030003EBD00001801002038B505460C460020B2
:10304000FFF72AFEA0208DF80000642301226946C4
:103050000648FEF796FA6423224629460348FEF7FF
:1030600090FA0120FFF718FE38BD00007C03002015
:1030700038B505460C460020FFF70EFE45F020004F
:103080008DF800008DF80140642302226946034850
:10309000FEF777FA0120FFF7FFFD38BD7C03002023
:1030A000F8B5044615460E460020FFF7F5FD44F03E
:1030B00020008DF800006423012269460648FEF7CF
:1030C00060FA64232A4631460348FEF75AFA012083
:1030D000FFF7E2FDF8BD00007C0300207047000010
:1030E0002DE9F84F8B4C3B204FF0FF35207001232A
:1030F0002246D02188480095FDF7B6FC06232246DB
:10310000D02185480095FDF787FB6188208849BA62
:103110000EB2A18840BA49BA00B204F112070FFA00
:1031200081FA01F043FF7D4C216801F0EDFD01F0D3
:1031300021FF00B238808046304601F037FF6168D9
:1031400001F0E2FD01F016FF00B2788081465046A2
:1031500001F02CFFA16801F0D7FD01F00BFF00B2D8
:10316000B8800646404601F021FF6FF00B0841464B
:1031700002F059F9A7F1C20407462066484601F05B
:1031800015FF414602F04FF96066304601F00EFF30
:10319000414602F048F90146A06601F067FF064685
:1031A0003946084601F062FF314601F0ADFD01F0FD
:1031B0007FFD01F02BF80746606E0E46804601F059
:1031C00077FD3A46334601F029F900F049FBDFF874
:1031D0005091544B4A4601F021F901F03DF86064EA
:1031E000A16E084601F042FF06464146084601F03E
:1031F0003DFF314601F088FD01F05AFD01F006F86F
:1032000007460E46206E01F053FD3A46334601F064
:1032100005F900F025FB4A46434B01F0FFF801F0A9
:103220001BF82064A61D412030700123A21DD0216F
:1032300039480095FDF718FC0223A21DD02136481D
:103240000095FDF7E9FA308840BA00B2208101F01C
:103250003DFA0022354B01F0E1F8354A354B01F0DB
:103260002DF800F0F9FFA064B03643203070012340
:103270003246D02128480095FDF7F6FB062332465A
:10328000D02125480095FDF7C7FA3088B71D40BA10
:1032900001B2708840BA05B2B08840BA0FFA80F91E
:1032A000084601F083FE1D4E0C3E316801F0E6FF3A
:1032B00001F060FE00B238808046284601F076FEBC
:1032C000716801F0DBFF01F055FE05B27D804846D4
:1032D00001F06CFEB16801F0D1FF01F04BFE06B2C7
:1032E000BE80404601F062FE134F394601F080FD7A
:1032F0006065284601F05AFE394601F079FDA06567
:10330000304601F053FE394601F072FDE065BDE83C
:10331000F88F0000B000002054010020E4020020DB
:103320003F7EFA80DEDF913FDEDF91BF00407540D7
:10333000A4703D0AD743424000008342F8B50446DA
:1033400040684FF48273984217D1A0684FF48065AB
:10335000B0F5004F01D0A8420FD12068066826F0D2
:10336000400606606068984207D1A068A84204D170
:1033700000920B460022012103E000920B4600223E
:103380008021204600F018F8002804D0606D40F03D
:10339000200060650320F8BD38B50B460092044656
:1033A0000022802100F008F8002804D0606D40F071
:1033B00020006065032038BD2DE9F8431E46914684
:1033C00088460446089DFDF75DF9401B351AFDF758
:1033D00059F9074625480068C0F3CB30684338E008
:1033E000701C37D0FDF74EF9C01BA84203D215B1AF
:1033F000009860B32CE02068416821F0E001416052
:103400006068B0F5827F0BD1A068B0F5004F02D0A4
:10341000B0F5806F04D12068016821F0400101609F
:10342000A06AB0F5005F09D12068016821F400515D
:1034300001602068016841F400510160012084F8B6
:103440005100002084F850000320BDE8F8830025D7
:10345000401E00902068816838EA010004D00021F5
:103460004945BDD10020F0E70121F9E71401002012
:103470007047FDF755BC30B58FB028216846FCF782
:10348000F5FE14210AA8FCF7F1FE01210804CDE99C
:1034900000100024029402250491CDE907504FF456
:1034A000E01009906846FDF79FFD08B172B6FEE78F
:1034B0000F20CDE90A054FF48060CDE90C400221D0
:1034C0000AA80E94FDF7C4FC002801D072B6FEE7EE
:1034D0000FB030BD704700000148FEF789BC000006
:1034E000000200200148FEF783BC000048020020D3
:1034F0000148FEF77DBC000090020020F0B5026894
:10350000164B174C174D4FF08047984205D0B842E4
:1035100003D0A04201D0A84203D122F070064A682D
:103520003243984205D0B84203D0A04201D0A8420D
:1035300003D122F44074CA6822434C6922F080020D
:10354000224302608A68C2620A688262984201D19C
:103550000969016301214161F0BD0000002C0140B7
:10356000000400400008004010B501F01F030121D5
:10357000046A99408C430462016A9A4011430162D3
:1035800010BD000030B5036A026A22F00102026237
:103590004268846924F073050C682C4323F002050B
:1035A0008B682B430A4DA8420BD123F00805CB684A
:1035B00022F440722B434D6923F0040315438A69BA
:1035C0002A434260846149684163036230BD000060
:1035D000002C014030B5026A036A23F01003036235
:1035E000436884690D6824F4E64444EA05248D6840
:1035F00022F0200242EA05120B4DA8420ED1CD68FE
:1036000022F0800242EA05124D6923F4406343EA46
:1036100085038D6922F0400243EA8503436084619B
:1036200049688163026230BD002C014030B5036AF5
:10363000026A22F4807202624268C46923F4007351
:1036400024F073050C682C438D6843EA05230C4D68
:10365000A8420ED1CD6823F4006343EA05234D69E7
:1036600022F4405242EA05128D6923F4806342EA53
:1036700005124260C4614968C163036230BD000045
:10368000002C014030B5046A026A22F480520262C2
:103690004268C3690D6823F4E64343EA05238D6855
:1036A00024F4005444EA0534064DA84204D14D697F
:1036B00022F4804242EA85124260C3614968016493
:1036C000046230BD002C014070B5056A046A24F024
:1036D0000104046284690F4EB04208D0B0F1804FFB
:1036E00005D00D4EB04202D00C4EB04203D124F0B2
:1036F0000304144301E044F001041A0724F0F00429
:1037000044EA126225F00A0301F00A0119438261BA
:10371000016270BD002C0140000400400008004020
:1037200030B5046A056A25F010050562856925F43F
:10373000407545EA022222F470454FF6FF7202EA14
:10374000033224F0A0032A43A02404EA0111194300
:103750008261016230BDFEE7490050EAC12018BF16
:1037600004204A0D18BF40F0010040F2FF72B2EB96
:10377000515F08BF40F00200012808BF05207047D4
:103780000907090E002804DB00F1E02080F800148E
:10379000704700F00F0000F1E02080F8141D704722
:1037A0002DE9F0414F1E00EBC7010446D1E90001AD
:1037B00015461E4637F006020DD02A46334600F065
:1037C0009DFF7F1E04EBC703D3E9002300F076FDC5
:1037D00037F00602F1D1022F25D0042F13D0062F87
:1037E00018BFBDE8F0812A46334600F087FFD4E9D0
:1037F0000A2300F063FD2A46334600F07FFFD4E938
:10380000082300F05BFD2A46334600F077FFD4E939
:10381000062300F053FD2A46334600F06FFFD4E93B
:10382000042300F04BFD2A46334600F067FFD4E93D
:10383000022300F043FD2A46334600F05FFFD4E93F
:103840000023BDE8F04100F039BD012201F0BDBD0B
:10385000024A0020110701F0B8BD000001FDFFFF82
:103860002DE9F84F04460D4621F0004000917349C0
:10387000814211DC7249884201DC06D12CB120461C
:103880002946BDE8F84FFFF7E0BF6E48002DCCBFDA
:103890006D496E49BDE8F88F6D49814211DD6D4972
:1038A0008142D8BF4FF0FF366DDD20462946FFF735
:1038B00053FF042808BFFFF7CBFF20462946BDE889
:1038C000F88F6549654F25F00045814233DD644935
:1038D000814219DD002632464FF0804320462946BA
:1038E00000F0ECFC80468A4601222046294601F081
:1038F0006CFD00223B4601F0F1F84246534600F0D1
:103900008DFD04460D463EE001260022BA463B46A8
:103910002046294600F0D2FC80460F46002253463E
:103920002046294601F0DAF842463B4600F076FD93
:1039300004460D4627E04B4981421BDDDFF828A1F4
:103940000226002253462046294600F0D7FE0022D8
:103950003B4600F0B3FC80460F460022534620460B
:10396000294601F0BBF842463B4600F057FD0446AD
:103970000D4608E0032622462B4600203B4900F076
:103980004DFD04460D4622462B461046194600F0D2
:10399000B5FE8B46824602460B4600F0AFFE074658
:1039A0000246334888460B4606217844FFF7F8FE66
:1039B00052465B4600F0A2FE82462E488B463A46AF
:1039C000434605217844FFF7EBFE3A46434600F0B4
:1039D00095FE02460B46002E504659460CDA00F082
:1039E0006DFC22462B4600F089FE01B022462B4694
:1039F000BDE8F04F00F080BF00F060FC22462B468F
:103A000000F07CFE1C4A7A4402EBC603D3E9002393
:103A100001F064F822462B4601F060F8174A7A4418
:103A200002EBC603D3E9002300F066FF009A002AE8
:103A3000B8BF81F00041BDE8F88F000000001044DD
:103A40000000F07F182D4454FB21F93FFB21F9BF02
:103A50000000DC3F0000203E0000F33F0000F03F8C
:103A60000000E63F008003400000F83F0000F0BF88
:103A70008A1B0000481B0000E61A0000AE1A000076
:103A8000ACB0FDF755F9FFF7F6FCFEF7B3FEFF48C3
:103A9000FD4900240160FE49C0E901144FF4804152
:103AA000C0E9034144618461C4610462FCF7F0FD34
:103AB00008B172B6FEE7FEF7F3FEFEF713FFFEF75E
:103AC0005FFFFEF79DFFFEF75FFEFCF743FCEF494B
:103AD0003622543115A8FCF797FBEC4D5435E88E8F
:103AE000ADF88A0005F10800016B2391808EADF8D6
:103AF0009000E88FADF89200112205F1400125A851
:103B0000FCF782FB95F851008DF8A500686D2A90AE
:103B1000542216A96846FCF777FB4FF480625100E7
:103B2000DC48159BFEF7EAFFFFF730FADA4DD5E9DE
:103B30001401FFF725F90120FFF786F93420FFF77C
:103B40009EF92020FFF7EEF9FFF7E6F8FFF7C2F83D
:103B5000CE480021AC30FEF7D9F8CC480421AC3077
:103B6000FEF7D4F8C9480821AC30FEF7CFF8C748B3
:103B70000C21AC30FEF7CAF840F2DE30A5F180012E
:103B80000A6B8242FCD34A6B8242F9D38A6B82422F
:103B9000F6D3CA6B8A468242F2D3BC480821F4307D
:103BA000FEF7D8FAB9480C21F430FEF7D3FA082111
:103BB000BA48FEF7CFFA0C21B848FEF7CBFAB74E59
:103BC0004FF4FA60483E3168C86331680864B34F07
:103BD0003968C863396808643220FCF743FC3168EF
:103BE0004FF47A70C863316808643968C86339680B
:103BF00008644FF49670FCF735FC5446DAF8300050
:103C000001F0ECF9A44D2860606B01F0E7F9686001
:103C1000A06B01F0E3F9A860E06B01F0DFF9E86068
:103C2000FFF75EFAD4E90501636C626DFEF75EFD95
:103C300005F14806306860617068A061D4E9070149
:103C4000236CA26DFEF752FD3068E0617168944EFE
:103C50002162314601F00AFAE0673146606901F0FD
:103C600005FAA0678F4AA868904206DA8E4BE96889
:103C7000994202DA0121617102E06179012909D1D9
:103C8000904213DA8949E86888420FDD02206071AA
:103C900000F0A0FA6079022808D1A868904205DAFD
:103CA0008349E868884201DD002060710020E066F9
:103CB000206760677F4E2868B04201DD314602E030
:103CC0007D49884205DA01F0D9FA7C4901F090F883
:103CD000E066A16FE06E01F0D1FA8046E0666868A8
:103CE000B04201DD314602E07349884205DA01F055
:103CF000C5FA724901F07CF82067E16F206F01F08E
:103D0000BDFA206707466E48A96881420CDDE86865
:103D10003146884202DC6849884205DA01F0AEFA91
:103D2000664901F065F86067A2464146606D01F0A2
:103D3000A5FA5A4E8146603639463060A06D01F0D2
:103D40009DFA70600746616FE06D01F097FAA6F585
:103D5000DA748046B0604946206800F0D5FF064618
:103D600020603946606800F0CFFF60604146A0687F
:103D700000F0CAFF484FA0607037DFF8488139680B
:103D8000404601F035F8314601F03CFA04D2404695
:103D9000396801F02DF820604B4E3968304601F04B
:103DA00027F8216801F02EF904D23046396801F075
:103DB0001FF820604046796801F01AF8616801F048
:103DC00021FA04D24046796801F012F8606030466A
:103DD000796801F00DF8616801F014F904D23046F9
:103DE000796801F005F860604046B96801F000F8B4
:103DF000A16801F007FA04D24046B96800F0F8FF64
:103E0000A060254870308168304600F0F1FFA3467D
:103E1000A16801F0F7F807D21F487030816830467A
:103E200000F0E6FFCBF80800184C0C3C04F5D47603
:103E30002168D6F80090484601F020FAA4F118074E
:103E400038600890706861688046059001F016FA45
:103E500078600790B668A1683046049601F00EFAC3
:103E6000B8600690C4F80090C4E90186A86801F023
:103E700081F800B240F21A415446AAF81200884272
:103E80007DDD054F7C3721E00054004054010020C7
:103E9000801A0600000C01408000002090020020E3
:103EA00000007041004083440080A24400C0C1442F
:103EB0000080D44400C0BC440040BA4400004040EC
:103EC00000C08F44000034C30000344339680898B0
:103ED00001F0CCF800F0ECFEB94ABA4B00F09EFAC3
:103EE000A7F10C05019108905E462968DBF80000F7
:103EF00001F0BCF800F0DCFEB14AB24B00F0FEFB72
:103F0000A5F10C08834603914846D8F8001001F04B
:103F1000ADF800F0CDFE5A46039B00F0CFF9019BAF
:103F2000089A00F0CBF900F097F960620190796887
:103F3000079801F09BF800F0BBFEA14AA14B00F0EE
:103F40006DFA009108906968706801F08FF800F0D0
:103F5000AFFE9B4A9B4B00F0D1FB81468B46D8F8C5
:103F60000410059801F082F800F0A2FE4A465B4674
:103F700000F0A4F9009B089A00F0A0F900E076E0B8
:103F800000F06AF9A062B968069801F06FF800F0D5
:103F90008FFE8B4A8B4B00F041FA07468946A96891
:103FA000B06801F063F800F083FE854A854B00F0AD
:103FB000A5FB05460E46D8F80810049801F056F8FF
:103FC00000F076FE2A46334600F078F93A464B4632
:103FD00000F074F900F040F9A8F10C05E0622868DF
:103FE00000F0E4FF019901F00DF803D2286800F019
:103FF000DDFF60622868404200F0D8FF616A01F08E
:1040000001F904D22868404200F0D0FF606268687D
:1040100000F0CCFFA16A00F0F5FF03D2686800F061
:10402000C5FFA0626868404200F0C0FFA16A01F0CD
:10403000E9F804D26868404200F0B8FFA062A868BE
:1040400000F0B4FFE16A00F0DDFF03D2A86800F0E1
:10405000ADFFE062A868404200F0A8FFE16A01F00D
:10406000D1F804D2A868404200F0A0FFE062607975
:10407000022805D04FF47A706081A081E08164E06D
:10408000B4F912104FF4E160814200DD6082B4F9AE
:10409000120000F08BFF616A05460E4600F034FE08
:1040A000A16A80468B4600F02FFEE16A894600F047
:1040B0002BFE00F05FFF07B267812846314601F012
:1040C000DDF80546594600F01FFE494601F0D6F8D6
:1040D00000F050FF06B2A6812846594601F0CEF8FE
:1040E000494600F011FE00F045FF05B2E58140466B
:1040F000594601F0C3F8494601F0C0F800F03AFF14
:1041000001B240F24C402182874200DA608186424F
:1041100000DAA081854200DAE081814200DA208263
:10412000B4F90A104FF4FA60814200DD6081B4F9FD
:104130000C10814200DDA081B4F90E10814200DD37
:10414000E081B4F91010814200DD20821E48B4F9EC
:104150000A100268D1630068B4F90C6006641A485A
:10416000B4F9103048300268D3630068B4F90E2007
:104170000264154D6069B4352860E06968600846DE
:1041800000F014FFA860304600F010FFE860202126
:104190002846FEF71FFF0D4E0D4D00BFFCF772FACB
:1041A00000F01CFF216D01F069F8314600F05EFF60
:1041B000A842F3DBFCF766FA00F010FF20651CE56F
:1041C000FCA9F1D24D62703F4802002000007A4401
:1041D00000007A450B490020086048608860A1F51E
:1041E000E0710860486088600C3108604860886051
:1041F0000C31086048608860034948628862C86280
:1042000070470000F0020020000000202DE9F0417E
:1042100006460F4600F07CFB041E0D4618BF012029
:10422000284320F00040C0F17F6000F1E040C00F63
:104230000ED0301C18BF0120384320F00040C0F1E0
:104240007F6000F1E040C00F04BF0120FCF73DF8A3
:1042500020462946BDE8F08121F00042A2F16052DB
:10426000B2F5801F01F0004328BFD2F17F6C0BD95B
:104270005FEA001C43EAC20242EB507018BF70476D
:1042800028BF20F001007047B2F5801FBCBF184660
:1042900070474FEA410C1CF5001F02D2084600F09F
:1042A000ACBF70B500F0D4FA00000089FFF7F6BF8C
:1042B0004FF00040A0F580007047000010B591EA73
:1042C000030F48BF83F0004300F11084841A71EBA0
:1042D000030C05D2121943EB0C03001B61EB0C011C
:1042E000DFF824E14FEA1154A4EB135C1EEA430FFC
:1042F00018BF9EEA445F73D023EA0E03DCF1200E60
:1043000021EA045143F4801332D322FA0CFE10EB5D
:104310000E0023FA0CFE41EB0E01CCF1200E03FA45
:104320000EFE10EB0E0051F10001B1F5801FCCF133
:10433000200E32D201EB045112FA0EF2BDE8104009
:1043400058BF7047401C38BF5FEA420218BF704731
:10435000002814BF20F0010041F100014FEA4103A1
:1043600013F5001F38BF7047A1F1C04100F0BEBA7D
:10437000012A43EB0302ACF1200CDCF11F0E32BF2B
:104380004FF0000E23FA0CF310EB030041EB045145
:10439000B4EB115FD0D0A1EB045101F580114908B5
:1043A0005FEA300001EB04510ED350F1000038BF3A
:1043B00012FA0EFE08D1BDE81040C9E7401C38BF14
:1043C0005FEA4202CAD1C3E7BDE810404FEA4103A9
:1043D00013F5001F38BF7047A1F1C04100F086BA45
:1043E0009EEA445F08D011EA5E0FBDE8104004BFAA
:1043F00001F0004100207047BDE8104070B500F0AA
:1044000027FA00BF64FBBE3E0000E0FF02494FF008
:10441000000000F0A8BF00BF0000F87F2DE9C041F8
:1044200030B4DFF8A0C23CEA111418BF3CEA131400
:1044300000F0EC8081EA03051CEA111444EAD5740B
:1044400018BF1CEA131500F0C780A4EB05044FF059
:10445000004545EAC12145EAC32341EA505143EAF8
:10446000525304F17F74994204F500344FEAC0209E
:104470004FEAC22208BF904200F09C804FEA1365C9
:104480000FF24016765D4FEA134506FB05F7C7F1BC
:10449000807706FB07F74FEAD737A7FB036876421A
:1044A000C8F58038A7FB06CE38BFA8F1010807FB86
:1044B00008E64FF0000EA6FB028CE6FB03CEDCF113
:1044C000000CCEF1004E38BFAEF1010EA6FB0C5829
:1044D0004FF000074FF00005E6FB0E87A1FB08C672
:1044E000A0FB07CE16EB0E0645F10005E1FB0765C4
:1044F00015F1E04E7EBFA4F580345FEA46066D41BB
:1045000016F1800745F100054FEA17274FEA0666C6
:1045100047EA0567A6F1DE46B6F1805F4FEA15254A
:104520001FD9384624F0010C05EBC471BCF1FE6FB5
:1045300001EB0C1102D8F0BCBDE8008124425CBF45
:1045400001F5801E9EEAC47F02D4F0BCBDE8008164
:10455000244238D4F0BCA1F1C041BDE8004100F0D4
:10456000C5B94FEAD22242EA43524FEAD323A7FB0E
:1045700002864FEAD02040EA415007FB03661EEA5C
:104580000E0F4FEAD12105FB026658BFA6EB00567D
:10459000B6EB00564FEA520E4EEAC37E18EB0E0EF3
:1045A00056EB530EBDD518EB02085E417F1C55F14A
:1045B0000005B6E74FF480154FF000074FF00006F6
:1045C0004FF00008ADE7F0BC4FF0000001F1C04132
:1045D00001F00041BDE8008111EA0C1F0CEA13153F
:1045E00000D00CE013EA0C1F00F025804FF0000013
:1045F000F0BC81EA030101F00041BDE80081F0BC9C
:10460000BDE8004181EA030100F070B9F0BCBDE8EB
:10461000004170B500F01CF9097EFC3E00F007B8BF
:1046200081EA03014FF0000001F00041704781EA88
:10463000030100F05BB9F0BCBDE800414FF00000A1
:1046400021497047FFFDFBF9F7F5F4F2F0EEEDEBD1
:10465000E9E8E6E4E3E1E0DEDDDBDAD8D7D5D4D380
:10466000D1D0CFCDCCCBCAC8C7C6C5C4C2C1C0BFCC
:10467000BEBDBCBBBAB9B8B7B6B5B4B3B2B1B0AFD2
:10468000AEADACABAAA9A8A8A7A6A5A4A3A3A2A1B6
:10469000A09F9F9E9D9C9C9B9A9999989797969571
:1046A00095949393929191908F8F8E8E8D8C8C8B0D
:1046B0008B8A898988888787868585848483838295
:1046C000828181800000FF070000F87F10F0004227
:1046D00048BF4042B0FA80F310FA03F10AD0C3F1A8
:1046E0001D0303F580634FEA415002EB035202EBD6
:1046F000D12170474FF0000070470000DFF848C13B
:1047000070B51CEA111E1EBF1CEA13159EEA0C0FA1
:1047100095EA0C0F00F06F8081EA030423EA4C1342
:104720004EEAD47E21EA4C1141F4801143F4801307
:10473000AE44A1FB024CA0FB0365AEF17F7E3619AF
:1047400055EB0C05A1FB034C4CF10003A0FB021C34
:1047500016EB0C06654153F10003094218BF46F001
:10476000010613F4007F0BD14FEA03314FEA053005
:10477000340341EA155140EA16506FF003020AE093
:104780004FEAC3214FEAC520F40241EA555140EAFD
:1047900056506FF0020202EB2E4201EB025585EA01
:1047A000CE710AD05FEA440C18BF24F0004450F1E7
:1047B000000041F1000120EAD47040F2FE7C624525
:1047C00000D270BDA84214BF4FF080444FF0404467
:1047D000002E08BF0024BEF1806FA8BFA1F1C04128
:1047E000BDE8704080F282804FF0000001F1C041CE
:1047F00001F0004170479EEA0C0F0CEA131518BF38
:1048000095EA0C0F06D04FF0000081EA030E0EF07F
:10481000004170BD00F01CF88900013E00F007B8AF
:1048200000F009B84FEA430C5FEA5C5C08D081EA0B
:10483000030100F05BB84FEA410C5FEA5C5CF6D123
:104840004FF00000014970470000FF070000F87FAB
:104850000EF1020E2EF0030E5EF8046B364205D404
:10486000012A43EB030515F5001F12D8012841EB7F
:10487000010C1CF5001F0CD80ED14FEAD17C15F5A8
:10488000001F0CEB4C0C0CF1020C08BF4CEBD37C62
:1048900004E04FF0080C01E04FEAD37C0CEB4C0530
:1048A00026FA05F606F00706B6F1040C06D20EEB62
:1048B000860CBDE870404CF0010C6047DFE80CF05E
:1048C000090B02024FF000414FF00000A1F500215A
:1048D00070BD19461046012851EB010418BFD4F5EC
:1048E000001484BF002001F0004170BD0808A0F54D
:1048F00000114FEA3101704791EA030F10B581F0C2
:1049000000413FF5E3AC83F0004300F0EFB8000056
:104910002DE9F04101F5801CBCF5001FC0F2C380F9
:104920004FEA115C21EA0C510CF1FD0C41F48011AD
:104930005FEA5C0C0CF5C07C01D3400049413DA40A
:10494000890241EA905187028E0E0A0CA45D04FB95
:1049500004F602FB06F6C6F14046A4FB0662F60D1D
:1049600046EA422606FB06F4A4FB01235242C3F1A9
:10497000404338BF5B1EA6FB02420024E6FB032433
:10498000D20B42EA4446A6FB0623A1FB02E2A3FBAC
:1049900007E4A4184FF0000252F10002E3FB0142C9
:1049A0006442C2F1404E38BFAEF1010EA6FB0423B3
:1049B0004FF00002E6FB0E32A2FB03464FF000046C
:1049C000B61954F10004E2FB0264A1FB06E6A4FB65
:1049D00007E816EB08064FF0000858F10008E4FB62
:1049E00001687642C8F1405838BFA8F10108A2FB1F
:1049F00006E4A3FB08E52D194FF0000454F1000470
:104A0000E2FB0854A1FB05E6A7FB04E818EB060847
:104A10004FF0000656F10006E1FB048618F1200570
:104A200056F10006A809A8F11B08B10908F03F08D3
:104A3000B8F10A0F40EA86601CD901EB0C51BDE8C1
:104A4000F08100BFFCF5EEE8E2DDD8D3CFCBC7C3E1
:104A5000C0BDB9B6B4B1AEACA9A7A5A3A19F9D9B9B
:104A60009A9896959392908F8D8C8B89888786855E
:104A700084838281A0FB006800FB01F208EB4208FE
:104A8000B8EB872807D5341858EB0104D5D5401C5E
:104A900051F10001D1E7341A78EB0104CDD4401E66
:104AA00071F10001C9E75FEA4C0C5FEA9C5C0DD133
:104AB00005D34FF0000001F00041BDE8F081BDE8F2
:104AC000F04170B5FFF7C4FE6DDBFFBEBDE8F041FD
:104AD0004FF00000004970470000F87F10B591EAE0
:104AE000030F48BF83F000433FF5F0AB841A71EB2E
:104AF000030C07D212198CF0004C43EB0C03001B83
:104B000061EB0C01DFF8A4E14FEA1154A4EB135C54
:104B10001EEA430F18BF9EEA445F00F0B08023EA0C
:104B20006E03524221EA0451C3EB6E0338BF5B1E91
:104B3000DCF1200E25D322FA0CFE10EB0E0043FA16
:104B40000CFE41EB0E01CCF1200E03FA0EFE10EB31
:104B50000E0051F10001CCF1200E29D412FA0EF210
:104B600001EB0451BDE8104058BF7047401C1CBF0A
:104B7000B2F1004F704700280CBF491C20F0010023
:104B8000704712EB020E43EB030218BF4FF0010E09
:104B90004EEA4202ACF1200CDCF11E0E54D943FA6D
:104BA0000CFE10EB0E0051F1FF31CCF11E0ED5D5ED
:104BB0000EF1010E12FA0EFE404141EB010101EB34
:104BC000445C5FEA5C5C10D910EBDE7001EB0451D1
:104BD00038BFBEF1004FBDE8104018BF7047002835
:104BE0000CBF491C20F00100704730D24FEAD42C92
:104BF00011F5001124F400641BD0B1FA81F20B3AD4
:104C0000A41AA41ED2F12003914030FA03F31943F1
:104C1000904001EBCC71002C01EB0451BDE8104039
:104C2000A8BF704701F1C0414FF0000001F0004102
:104C30007047B0FA80F310FA03F100D110BDE41A06
:104C4000173C4805C90AE4E701EB045110BD4910BF
:104C500001EB0451BDE810404FEA300002E04FF094
:104C6000000170474A0008BF0042F8D0B2F5001FAB
:104C700028BF704701F000414FF0000070479EEAE6
:104C8000445F07D011EA5E0FBDE8104004BF002169
:104C900000207047BDE8104070B5FFF7D9FD00BF98
:104CA00040DFF63E83F00041104670470000E0FF11
:104CB00043004FEAD30C4FEA3C0C43401FBF400770
:104CC0000CF1605113F0FE4F70471CF0006F03D1E0
:104CD00000200CF0004170470CF0004343EA507094
:104CE00010B540EACC0000F042FA00BF000000928C
:104CF0004FEA0001FFF7FABD4FF000414FF000000E
:104D0000A1F500217047000090EA010F48BF81F033
:104D1000004100F1BA82421A3CBF801A89184FEA5A
:104D2000D0524FF07F4C1CEA410FA2EBD15318BF79
:104D30009CEA026F00F03B804FF0004C4CEA0020F0
:104D40004CEA012121FA03FC10EB0C0C1ED202F1FB
:104D5000FF325FEA1C2040EBC25038BF70471CF0A6
:104D60007F0F4FEA400C18BFBCF17F4F38BF704730
:104D7000C3F12003994008BF20F00100BCF17F4F30
:104D800038BF7047A0F1C04000F037BA4FEA3C008E
:104D9000000A40EBC25028BF1CF0FF0F4FEA400C46
:104DA000E6D018BFBCF17F4F38BF7047EAE79CEAF6
:104DB000026F05D010EA5C0F08BF00F0004070479A
:104DC00010B500F0D4F900BF64FBBE3E014800F00E
:104DD000CABA00BF0000C07F401058BFC0F14040B9
:104DE000491058BFC1F140418142EFF30080704744
:104DF0004FF47F0C1CEAD0121EBF1CEAD11392EABA
:104E00000C0F93EA0C0F00F0858090EA010F48BF69
:104E100042F4807240F4000C41F400002CF07F4119
:104E200020F07F4000B58142A2EB03020FF2081C84
:104E3000ACEB504EC0F100009EF800E04FEA4E0E81
:104E400000FB0EFC38BF49004FEA2C1C02F5FA02A9
:104E50000CFB0EF34FEACE1E4FEA112C4FEAC12194
:104E60000EEB635E42EB22420EFB0CFC4FEA1C533E
:104E700000FB03114FEA112C4FEA01310EFB0CFC31
:104E80004FEADC4C00FB0C11C14228BF09184CEB67
:104E900003335DF804EB10EB410143EBC250B2F574
:104EA0007C0F38BF704729D512F0F00F1CBF00F1FE
:104EB000C04000F00040704700818283848586876F
:104EC00088898B8C8D8E8F919293959697999A9CC9
:104ED0009D9FA0A2A3A5A7A8AAACAEB0B2B3B5B738
:104EE000B9BCBEC0C2C5C7C9CCCED1D4D7D9DCDF0E
:104EF000E2E6E9ECF0F3F7FAFE0000004FEA400CBE
:104F00000CF1807CBCF17E4F28BF7047B0F1C040EF
:104F100000F073B990EA010F0CEAD11348BF42F4D4
:104F20008072624538BF634507D213F47F0F16D0F5
:104F300080EA010000F00040704710B500F017F95A
:104F4000097EFC3E00F005B880EA010000F0004058
:104F5000704780EA010000F0004000F04EB912F402
:104F60007F0F04BF0248704780EA010000F045B996
:104F70000000C07F41000B0ED3F19E0208D950F40F
:104F800000034FEA032323FA02F048BF4042704770
:104F900010B500F0ECF800BF499224800020704763
:104FA0006FF0004282EA20007047000010F00041DC
:104FB00048BF4042B0FA80F310FA03F2C3F19D03F8
:104FC0000BD051EAC35101EB1220530638BF704792
:104FD00000F1010008BF20F001007047B0FA80F333
:104FE00010FA03F2C3F19D030AD0D90501EB122098
:104FF000530638BF704700F1010008BF20F00100E0
:105000007047000050EA010C00F113801CF5000FFE
:1050100058BFBCF5000F01D48842704707D710F580
:10502000000F58BF11F5000F15D488427047894210
:1050300070471CF5000F04D5BCF5000FF7D5814271
:1050400070474FF0807C1CEB400F38BF1CEB410FCA
:1050500001D28142704710B500F089F892244900CE
:105060004FF000504FF08051FFF7B6BE4FF47F0C69
:105070001CEAD0121EBF1CEAD11392EA0C0F93EA6D
:105080000C0F00F0478090EA010F48BF42F4807295
:105090004FF0004C4CEA00204CEA012102EB0302E5
:1050A000A0FB0113A2F50002002918BF43F0010381
:1050B0005B0028BF4FEA330342EB22425FEA132C26
:1050C0004CEBC2502EBFBCEB436FB2F57C0F704768
:1050D0004FEA036CBCF1004F08BF20F00100B2F5AD
:1050E0007C0F38BF70470BD582F0FF0212F5803F6E
:1050F000C8BF704700F1C040D8BF00F00040704703
:1051000000F5000C5FEA4C0C48BF7047B0F1C0409E
:1051100000F073B890EA010F0CEAD11348BF42F4D3
:105120008072624538BF634504D280EA010000F016
:105130000040704710B500F01AF800BF8900013E2A
:1051400000F007B800F009B85FEA410C5FEA1C6C98
:1051500008D080EA010000F050B85FEA400C5FEA36
:105160001C6CF6D14FF00040A0F5800070470EF1A6
:10517000020E2EF0030E5EF8044B244204D44FEAD4
:105180004102B2F17F4F11D84FEA4003B3F17F4F94
:105190000CD80ED14FEAD07CB2F17F4F0CEB4C0C07
:1051A0000CF1020C08BF4CEBD17C04E04FF0080C72
:1051B00001E04FEAD17C0CEB4C0324FA03F404F039
:1051C0000704B4F1040C06D20EEB840CBDE81040C9
:1051D0004CF0010C6047DFE80CF0070802024FF0CA
:1051E0000040A0F5800010BD0846420018BFD2F173
:1051F000807288BF00F0004010BDFF2141EAD0500E
:10520000C005704751EA000C00F113801CF5000F37
:1052100058BFBCF5000F01D48142704707D711F584
:10522000000F58BF10F5000F15D481427047894216
:1052300070471CF5000F04D5BCF5000FF7D5884268
:1052400070474FF0807C1CEB410F38BF1CEB400FC8
:1052500001D28842704780EA010081EA000180EAB9
:105260000100FFF7F8BE80F0004090EA010F7FF5E3
:1052700052AD81F0004100F008B8000090EA010F43
:1052800048BF81F000413FF546AD421A04D882F094
:105290000042A0EB020011444FEAD0524FF07F4C85
:1052A0001CEA410FA2EBD15318BF9CEA026F4AD00F
:1052B0004FF0004C4CEA00204CEA012121FA03FC9B
:1052C000B0EB0C0C0FD412F0FE0F36D05FEA4C009E
:1052D0001DD5001240EBC25038BF70471CF03F0F85
:1052E00018BF70470BE0A2F101025FEA1C2040EBFF
:1052F000C25038BF70471CF07F0F18BF7047C3F112
:105300002003994014BF401E20F001007047800820
:105310004FEA122308BF7047B0FA80FCA2EB0C02E0
:10532000CCF1280C60FA0CF093EA122F04BF00EBCA
:10533000C25070474FEAC3707047130A5FEADC102F
:1053400008BF7047F6E79CEA026F04D010EA5C0FD2
:1053500008BF0020704710B5FFF709FF40DFF63E99
:1053600081F0004070470CF00F03092B08BF0820A4
:1053700000F07F800A2B0BD0082B18BF704708BFA6
:105380001CF0400F0AD04FF000004FF000017047B2
:105390001CF0400F18BF4FF0004070471CF0100F7A
:1053A00008D020F0704300F07F4242EAD3014FEA78
:1053B0004370704700F0604021F07F4242EA0002F3
:1053C00001F07F4040EA727070474FF0FF0C4CF4E0
:1053D000E06C1CEA11531CBF9CEA030C9445C2BF4D
:1053E000DA4201EB02517047002B0DD0BCF1000FE7
:1053F0000FD0002A01F00041A4BF41F0E04141F08C
:105400007F614FF00000704701F000414FF0000055
:10541000704750EA01334FF09B0C18BF4CF0806C82
:105420007EF4F4AF70474FF0FF0212EAD0521CBF77
:1054300092F0FF038B42C2BFD14200EBC1507047D4
:10544000002A0AD0002B0BD0002900F00040A4BF96
:1054500040F0FE4040F40000704700F0004070470C
:1054600043024FF00B0C18BF4CF0806C7FF4AEACD5
:1054700070471CF4801F11D01CF4E02F03D06FEA9A
:10548000CC31490070474FF04050EFF3008222F0DA
:10549000704242EA000282F3008870474FF0000039
:1054A0007047010202030405060708090A0B0C0DE8
:1054B0000E0F1010000000000000000001020304A5
:1054C00006070809000000000102030400000000B4
:1054D0004FBB610567ACDD3F182D4454FB21E93F0C
:1054E0009BF681D20B73EF3F182D4454FB21F93FFB
:1054F000E2652F227F2B7A3C075C143326A6813C81
:10550000BDCBF07A8807703C075C143326A6913C2B
:10551000C4EB98999999C9BF711623FEC671BCBF97
:105520006D9A74AFF2B0B3BF9AFDDE522DDEADBFFF
:105530002F6C6A2C44B4A2BF0D5555555555D53F17
:10554000FF8300922449C23F6E204CC5CD45B73F32
:10555000513DD0A0660DB13FEB0D76244B7BA93FAA
:1055600011DA22E33AAD903F885500080000002090
:105570003001000028010008B85500083001002063
:105580000809000084010008011ACB80400801A628
:1055900036AA443322118B900104214BC03F0411E1
:1055A0002E408FC2F53C041C0AD7A3043A230441C1
:0855B00029278210031924F4DD
:04000005080000ED02
:00000001FF
